:020000040800F2
:10000000080400209D0100088306000885020008FE
:100010008106000809020008AD0700080000000082
:10002000000000000000000000000000B906000809
:100030000B02000800000000B7060008BB0600081D
:10004000B7010008B7010008B7010008B7010008B0
:10005000B7010008B70100080D020008B701000849
:1000600049020008B7010008B7010008B7010008FD
:10007000B7010008B7010008B7010008B701000880
:10008000B7010008B7010008B7010008B701000870
:10009000B7010008B7010008B7010008B701000860
:1000A000B7010008B7010008B7010008B701000850
:1000B000B7010008B7010008B7010008B701000840
:1000C000B7010008B7010008B7010008B701000830
:1000D000B7010008B7010008B7010008B701000820
:1000E000B7010008B7010008B7010008B701000810
:1000F000B7010008B7010008B7010008B701000800
:10010000B7010008B7010008B7010008B7010008EF
:10011000B7010008B7010008B7010008B7010008DF
:10012000B7010008B7010008B7010008B7010008CF
:10013000B7010008B7010008B7010008B7010008BF
:10014000B7010008B7010008B7010008B7010008AF
:10015000B7010008B7010008B7010008B70100089F
:10016000B7010008B7010008B7010008B70100088F
:10017000B7010008B7010008B7010008000000003F
:10018000B7010008B7010008DFF80CD000F02AF82A
:100190000048004709080008080400200648804776
:1001A00006480047FEE7FEE7FEE7FEE7FEE7FEE75C
:1001B000FEE7FEE7FEE7FEE7910700088901000879
:1001C000D2B201E000F8012B491EFBD27047002299
:1001D000F6E710B513460A4604461946FFF7F0FF46
:1001E000204610BD064C074D06E0E06840F00103D4
:1001F00094E8070098471034AC42F6D3FFF7C8FFE5
:100200005C0800087C080008FEE7704710B50A206B
:1002100000F09CF90121094800F044F9012804D1BB
:100220000748416981F400714161012000F088F8BC
:10023000002802D003490120086010BD00000240E0
:1002400000140240143C014010B50A2000F07EF971
:100250000421094800F026F920B90848416981F4D1
:1002600080614161042000F06BF8002802D004494D
:100270000420086010BD000000100240001402407D
:10028000143C0140FEE70000044908B50A68024337
:100290000A6009680140009108BD00003038024042
:1002A00030B5264A002405790168131F85B371B360
:1002B00045798DB1012D17D0022D18D001248379F5
:1002C0002BB31E4908310A1F012B18D0022B20D056
:1002D000032B22D0012428E015688D4315600168A6
:1002E0001A680A431A60EAE71D688D4301E01D6839
:1002F0000D431D60016813680B431360DFE703685B
:100300000D689D430D6000681168014311600CE0A9
:100310000DE0036815689D4302E0036815681D43FE
:10032000156000680A6802430A60204630BD1D68F7
:100330008D431D60006811688143E7E7043C01407C
:1003400003490968884301D00020704701207047A5
:10035000143C01402DE9F0430A68012592FAA2F20B
:10036000B2FA82F34FF00F08032493E005FA03F684
:1003700032407DD04E68012E01D0022E28D18E68E9
:10038000876892FAA2FCBCFA8CFC4FEA4C0C04FA87
:100390000CFC27EA0C0792FAA2FCBCFA8CFC4FEA90
:1003A0004C0C06FA0CF637438760D1F80C9046687F
:1003B00092FAA2F7B7FA87F705FA07FC26EA0C06C5
:1003C00092FAA2FCBCFA8CFC09FA0CF73E43466098
:1003D000D1F810C0C66892FAA2F7B7FA87F77F0083
:1003E00004FA07F7BE4392FAA2F7B7FA87F77F003D
:1003F0000CFA07FC46EA0C06C6604E68022E32D1A3
:1004000092FAA2F6B6FA86F6082E4E6915D2076A57
:1004100092FAA2FCBCFA8CFC4FEA8C0C08FA0CFC99
:1004200027EA0C0792FAA2FCBCFA8CFC4FEA8C0C6F
:1004300006FA0CF63743076215E0476AB1464FEA01
:10044000122C9CFAACF6B6FA86F6B60008FA06F656
:10045000B7439CFAACF6B6FA86F64FEA860C09FA70
:100460000CF6374347624E68076892FAA2FC00E038
:100470000FE0BCFA8CFC4FEA4C0C04FA0CF992FA2F
:10048000A2F2B2FA82F2520027EA090796403743F5
:1004900007605B1C0A6832FA03F67FF467AF00203E
:1004A000BDE8F0830069814301D00020704701203E
:1004B000704730B5036891FAA1F4B4FA84F465008A
:1004C0000324AC4091FAA1F1B1FA81F14900A343B0
:1004D0008A401343036030BD30B5C36891FAA1F47C
:1004E000B4FA84F465000324AC4091FAA1F1B1FAA6
:1004F00081F14900A3438A401343C36030BD4FF4E8
:100500007A71B0FBF1F14FF0E020491E416100210A
:1005100081610521016170470A06930D074A1A445B
:10052000D2F8083823EA1143090C91FAA1F1B1FA83
:1005300081F188400343C2F8083870470030014019
:1005400001490860704700000000002008B54FF026
:10055000E0210A690092421C00D0401C0A69D203C3
:1005600000D5401E0028F9D108BD00002DE9F04358
:1005700089B000240094182102A80194FFF727FEF7
:100580001020FFF781FE2020FFF77EFE8020FFF77E
:100590007BFE0120FFF778FE0220FFF775FE344E48
:1005A0004FF0C0604FF4C069B0614FF0706104203B
:1005B000FFF7B2FF4FF470210020FFF7ADFF0420DA
:1005C000012500908DF804508DF8054002208DF82B
:1005D00006006846FFF764FE8DF804508DF805406C
:1005E00000958DF806506846FFF75AFE214F01220C
:1005F00004213846FFF770FFDFF87C8002220121DA
:100600004046FFF769FF002204213846FFF751FFFB
:10061000002201214046FFF74CFFCDF80890CDE9BC
:100620000354059402A930460694FFF793FE134C39
:1006300020680022C0F30220114600F023F8014692
:10064000062000F0C1F8062000F0B1F82068002272
:10065000C0F30220114600F015F80146082000F012
:10066000B3F8082000F0A3F809B0BDE8F08300005B
:100670000014024000100240000002400CED00E0B7
:10068000FEE7704730B500F00703C3F10704042C00
:1006900000D90424181D072801D2002300E0DB1E26
:1006A000012505FA04F0401E084098409D406D1E4B
:1006B0001540284330BD7047704770472F4810B52C
:1006C000016821F00F0141F00501016000682C482C
:1006D000016841F4804101602A48016821F0F80175
:1006E00041F080010160016841F001010160016891
:1006F000C1F340010029FAD0224942F60822091D1F
:100700000B68214C23401A430A600A6822F44032E5
:100710000A60016841F0807101600168C1F34061C5
:100720000029FAD017480830016821F0F001016073
:10073000016821F4E05141F4A0510160016821F405
:10074000604141F400410160016821F0030141F082
:1007500002010160016801F00C010829FAD10B4C7B
:100760002046FFF7CCFE4FF0E021086940F004007E
:1007700008612046BDE81040FFF7E2BE003C0240A1
:1007800000700040003802400080BFFF007A030A7A
:100790000548016841F47001016003494FF00060B1
:1007A000803908607047000088ED00E0FEE700280F
:1007B00009DB00F01F02012191404009800000F197
:1007C000E020C0F8001170470907090E002804DB7B
:1007D00000F1E02080F80014704700F00F0000F1F5
:1007E000E02080F8141D704702E008C8121F08C1FD
:1007F000002AFAD170477047002001E001C1121FA2
:10080000002AFBD170470000114808B5016841F487
:1008100080410160006800F4804000900C48001F97
:10082000016841F08051016000680A4900F0805081
:10083000009008684FF6FF021040074A40F44070ED
:1008400010430860FFF73AFFFFF790FEFEE7000055
:10085000443802400CED00E00000FA057C08000876
:100860000000002004000000E807000880080008DD
:100870000400002004040000F80700080024F4002D
:040000050800018965
:00000001FF
