:020000040800F2
:10000000180400209D010008D3060008AD02000876
:10001000D1060008A9020008250900080000000018
:10002000000000000000000000000000A50700081C
:10003000AB02000800000000D5060008A707000872
:10004000B7010008B7010008B7010008B7010008B0
:10005000B7010008B7010008B7010008B7010008A0
:10006000B7010008B7010008B7010008B701000890
:10007000B7010008B7010008B7010008B701000880
:10008000B7010008B7010008B7010008B701000870
:10009000B7010008B7010008B7010008B701000860
:1000A000B7010008B7010008B7010008B701000850
:1000B000B7010008B7010008B7010008B701000840
:1000C000B7010008B7010008B7010008B701000830
:1000D000B701000899080008B7010008B701000837
:1000E000B7010008B7010008B7010008B701000810
:1000F000B7010008B7010008B7010008B701000800
:10010000B7010008B7010008B7010008B7010008EF
:10011000B7010008B7010008B7010008B7010008DF
:10012000B7010008B7010008B7010008B7010008CF
:10013000B7010008B7010008B7010008B7010008BF
:10014000B7010008B7010008B7010008B7010008AF
:10015000B7010008B7010008B7010008B70100089F
:10016000B7010008B7010008B7010008B70100088F
:10017000B7010008B7010008B7010008000000003F
:10018000B7010008B7010008DFF80CD000F07AF8DA
:100190000048004745090008180400200648804729
:1001A00006480047FEE7FEE7FEE7FEE7FEE7FEE75C
:1001B000FEE7FEE7FEE7FEE77D080008890100088C
:1001C0002DE9F05F0546002092469B46884606468C
:1001D000814640241BE0284641464746224600F01F
:1001E00041F853465A46C01A914110D31146184659
:1001F000224600F028F82D1A67EB01084F462246E8
:100200000120002100F01FF817EB00094E41201ECD
:10021000A4F10104DFDC484631462A464346BDE8E6
:10022000F09FD2B201E000F8012B491EFBD27047CB
:100230000022F6E710B513460A4604461946FFF7B2
:10024000F0FF204610BD202A04DB203A00FA02F11C
:10025000002070479140C2F1200320FA03F31943B4
:1002600090407047202A04DB203A21FA02F0002156
:10027000704721FA02F3D040C2F1200291400843B6
:1002800019467047064C074D06E0E06840F0010350
:1002900094E8070098471034AC42F6D3FFF778FF94
:1002A000F8090008180A0008FEE77047FEE700009A
:1002B000044908B50A6802430A60096801400091D0
:1002C00008BD0000303802402DE9F0430A680125DE
:1002D00092FAA2F2B2FA82F34FF00F08032493E0ED
:1002E00005FA03F632407DD04E68012E01D0022E71
:1002F00028D18E68876892FAA2FCBCFA8CFC4FEA7F
:100300004C0C04FA0CFC27EA0C0792FAA2FCBCFA8B
:100310008CFC4FEA4C0C06FA0CF637438760D1F898
:100320000C90466892FAA2F7B7FA87F705FA07FC2D
:1003300026EA0C0692FAA2FCBCFA8CFC09FA0CF72D
:100340003E434660D1F810C0C66892FAA2F7B7FAE9
:1003500087F77F0004FA07F7BE4392FAA2F7B7FACD
:1003600087F77F000CFA07FC46EA0C06C6604E6869
:10037000022E32D192FAA2F6B6FA86F6082E4E690D
:1003800015D2076A92FAA2FCBCFA8CFC4FEA8C0CDC
:1003900008FA0CFC27EA0C0792FAA2FCBCFA8CFCC7
:1003A0004FEA8C0C06FA0CF63743076215E0476AF1
:1003B000B1464FEA122C9CFAACF6B6FA86F6B600B5
:1003C00008FA06F6B7439CFAACF6B6FA86F64FEA98
:1003D000860C09FA0CF6374347624E68076892FAB2
:1003E000A2FC00E00FE0BCFA8CFC4FEA4C0C04FAD3
:1003F0000CF992FAA2F2B2FA82F2520027EA090745
:100400009640374307605B1C0A6832FA03F67FF4B4
:1004100067AF0020BDE8F0834FF47A71B0FBF1F1D3
:100420004FF0E020491E41610021816105210161F9
:10043000704710B5044600F079F9206000F04CF9DF
:10044000606000F057F9A060606800F061F9E0605A
:1004500010BD000001490860704700000400002042
:100460007FB50446C0680D460126C0F34030C0BBCE
:10047000E9686868AA690843296911430843E16883
:1004800049F20C6291430843E060A868216921F4B5
:100490004051014321616869616921F44071014360
:1004A00061616846FFF7C5FF0F48844208D00F48D6
:1004B00084420DD00E4884420AD00E48844201D1B5
:1004C000039906E00C48844202D00C48844208D1CB
:1004D000029931B12B6823B100262046AA6900F0A9
:1004E0000FF804B0304670BD0010014000440040D9
:1004F0000048004000140140004C00400050004003
:100500002DE9F04106461920A1FB00011F460023FA
:1005100064243225B2F5004F27D0BB0FBA00FFF795
:100520004FFE0146B0FBF4F06FF01802504301EBB0
:10053000800005EB0010B0FBF4F000F0F002B1FB1E
:10054000F4F002EB0012B1FBF4F06FF01803584323
:1005500001EB800005EB0010B0FBF4F000F00F00A1
:10056000104480B2B060BDE8F081FA195B41FFF73A
:1005700027FE0146B0FBF4F00201B1FBF4F06FF08E
:100580001803584301EB800005EBC000B0FBF4F00A
:1005900000F0F80002EB4002B1FBF4F0584301EB2D
:1005A000800005EBC000B0FBF4F000F00700D7E7D7
:1005B00000B587B018216846FFF73AFE2020FFF704
:1005C00077FE8020FFF774FE0120FFF771FE022006
:1005D000FFF76EFE08484FF400710A048261009133
:1005E0000121019100210291039104916946FFF7D5
:1005F0006BFE07B000BD00000014024010B58EB0C5
:100600001C216846FFF714FE182107A8FFF710FE0B
:100610002A48016841F010010160006800F01000F4
:100620000D9026481438016841F00101016000680E
:10063000002400F001000D904FF4C06007900220EC
:1006400008900320CDE9090401200B9007200C90AD
:1006500007A91B48FFF738FE1A480068C0F30220BC
:10066000011D072901D2002000E0C01E04FA00F19C
:100670000801154981F80004134920202139C1F8E7
:1006800000014FF4E130CDE900040C200294CDE9E3
:100690000340059406940D4C69462046FFF7E0FEA2
:1006A000206920F490402061606920F02A00606198
:1006B000E06840F40050E0600EB010BD44380240E5
:1006C000000002400CED00E025E000E000100140D9
:1006D000FEE770477047000004490968044A01F0CA
:1006E000F0010909515CC840704700000838024019
:1006F000E009000804490968044A01F4E05102EBEA
:1007000091210978C840704708380240F009000874
:1007100004490968044A01F4604102EB5131097847
:10072000C840704708380240F009000807480068D0
:1007300010F00C01064807D0042904D0082903D181
:10074000082000F009B8034870470000083802404C
:100750000024F40000127A0010B5104A044600206C
:10076000116811F480030E4903D0B3F5800F00D156
:100770004910082C11D1106800F03F00B1FBF0F0D7
:100780001168C1F3881148431168012201F4403116
:1007900002EB11414900B0FBF1F010BD04380240FA
:1007A0000024F400704770472F4810B5016821F00D
:1007B0000F0141F00501016000682C48016841F417
:1007C000804101602A48016821F0F80141F0800170
:1007D0000160016841F0010101600168C1F340015D
:1007E0000029FAD0224942F60822091D0B68214C43
:1007F00023401A430A600A6822F440320A60016802
:1008000041F0807101600168C1F340610029FAD0B4
:1008100017480830016821F0F0010160016821F4F7
:10082000E05141F4A0510160016821F4604141F4BC
:1008300000410160016821F0030141F00201016003
:10084000016801F00C010829FAD10B4C2046FFF792
:10085000E3FD4FF0E021086940F004000861204604
:10086000BDE81040FFF7F6BD003C024000700040BC
:10087000003802400080BFFF007A030A0548016883
:1008800041F47001016003494FF000608039086055
:100890007047000088ED00E006480168C1F3401190
:1008A000002906D0C068C0F34010002801D000F035
:1008B00003B87047001001400A4842680B480A4BD1
:1008C00001785A54491CC9B201700A2909D1002182
:1008D00001700749012008700648416981F40071E0
:1008E0004161704700100140080000200100002015
:1008F000000000200014024010B50022084B07E061
:100900001C68C4F3C014002CFAD0845C5C60521CD8
:100910008A42F5D31868C0F380100028FAD010BDC1
:1009200000100140FEE702E008C8121F08C1002ABB
:10093000FAD170477047002001E001C1121F002A60
:10094000FBD170471D4808B5016841F48041016042
:10095000006800F4804000901848001F016841F0D2
:10096000805101600068164900F0805000900868CE
:100970004FF6FF021040134A40F4407010430860E5
:10098000FFF712FFFFF714FEFFF738FE03210EA05A
:10099000FFF7B2FF0D48C16841F02001C1600C4C67
:1009A000002520780128FCD107210AA0FFF7A4FF29
:1009B0000B210A48FFF7A0FF2570F2E744380240F8
:1009C0000CED00E00000FA054F4B00000010014064
:1009D0000000002049206765742000000800002006
:1009E00000000000000000000102030406070809DF
:1009F0000000000001020304180A000800000020A3
:100A00000800000026090008200A0008080000204D
:100A10001004000036090008000000000024F40063
:040000050800018965
:00000001FF
