:020000040800F2
:10000000100400209D010008A30700080D0200084D
:10001000A1070008090200089F080008000000006E
:10002000000000000000000000000000A70700081A
:100030000B02000800000000A5070008A90700083F
:10004000B7010008B7010008B7010008B7010008B0
:10005000B7010008B7010008B7010008B7010008A0
:10006000B7010008B7010008B7010008B701000890
:10007000B7010008B7010008B7010008B701000880
:10008000B7010008B7010008B7010008B701000870
:10009000B7010008B7010008B7010008B701000860
:1000A000B7010008B7010008B7010008B701000850
:1000B000B7010008B7010008B7010008B701000840
:1000C000B7010008B7010008B7010008B701000830
:1000D000B7010008B7010008B7010008B701000820
:1000E000B7010008B7010008B7010008B701000810
:1000F000B70100089D080008B7010008B701000813
:10010000B7010008B7010008B7010008B7010008EF
:10011000B7010008B7010008B7010008B7010008DF
:10012000B7010008B7010008B7010008B7010008CF
:10013000B7010008B7010008B7010008B7010008BF
:10014000B7010008B7010008B7010008B7010008AF
:10015000B7010008B7010008B7010008B70100089F
:10016000B7010008B7010008B7010008B70100088F
:10017000B7010008B7010008B7010008000000003F
:10018000B7010008B7010008DFF80CD000F02AF82A
:1001900000480047C10800081004002006488047B6
:1001A00006480047FEE7FEE7FEE7FEE7FEE7FEE75C
:1001B000FEE7FEE7FEE7FEE7810800088901000888
:1001C000D2B201E000F8012B491EFBD27047002299
:1001D000F6E710B513460A4604461946FFF7F0FF46
:1001E000204610BD064C074D06E0E06840F00103D4
:1001F00094E8070098471034AC42F6D3FFF7C8FFE5
:100200007009000890090008FEE77047FEE700004B
:10021000044908B50A6802430A6009680140009170
:1002200008BD0000303802402DE9F0430A6801257E
:1002300092FAA2F2B2FA82F34FF00F08032493E08D
:1002400005FA03F632407DD04E68012E01D0022E11
:1002500028D18E68876892FAA2FCBCFA8CFC4FEA1F
:100260004C0C04FA0CFC27EA0C0792FAA2FCBCFA2C
:100270008CFC4FEA4C0C06FA0CF637438760D1F839
:100280000C90466892FAA2F7B7FA87F705FA07FCCE
:1002900026EA0C0692FAA2FCBCFA8CFC09FA0CF7CE
:1002A0003E434660D1F810C0C66892FAA2F7B7FA8A
:1002B00087F77F0004FA07F7BE4392FAA2F7B7FA6E
:1002C00087F77F000CFA07FC46EA0C06C6604E680A
:1002D000022E32D192FAA2F6B6FA86F6082E4E69AE
:1002E00015D2076A92FAA2FCBCFA8CFC4FEA8C0C7D
:1002F00008FA0CFC27EA0C0792FAA2FCBCFA8CFC68
:100300004FEA8C0C06FA0CF63743076215E0476A91
:10031000B1464FEA122C9CFAACF6B6FA86F6B60055
:1003200008FA06F6B7439CFAACF6B6FA86F64FEA38
:10033000860C09FA0CF6374347624E68076892FA52
:10034000A2FC00E00FE0BCFA8CFC4FEA4C0C04FA73
:100350000CF992FAA2F2B2FA82F2520027EA0907E5
:100360009640374307605B1C0A6832FA03F67FF455
:1003700067AF0020BDE8F0834FF47A71B0FBF1F174
:100380004FF0E020491E416100218161052101619A
:100390007047000001490860704700000800002015
:1003A000F0B50268254B264D264E274F274C4FF0BF
:1003B000804C984209D0604507D0A84205D0B04291
:1003C00003D0B84201D0A04205D1D1F804E022F018
:1003D000700242EA0E0298421BD0604519D0A84232
:1003E00017D0B04215D0B84213D0A04211D0184D4A
:1003F000A8420ED0174DA8420BD0174DA84208D0E6
:10040000164DA84205D0164DA84202D0154DA8425F
:1004100003D1CD6822F440722A4302608A68C26226
:100420000A888262984201D0A04201D1097C01630E
:10043000416941F0010141610020F0BD000001402F
:100440000004004000080040000C0040000401408F
:1004500000400140004401400048014000180040B5
:10046000001C004000200040F0B5012600236E4C27
:100470006E4D012908D010293BD0B1F5807F73D093
:10048000B1F5805F6ED1A6E0016A21F00101016241
:10049000016A46688769D2F800C027F0730747EA07
:1004A0000C07D2F810C021F0020141EA0C01D2F889
:1004B00004C021F0010141EA0C01A04201D0A84290
:1004C00012D1546921F0080141EA8401946821F0B5
:1004D000040141EA8401956926F480742C43D569AE
:1004E00024F4007444EA450646608761D26842639A
:1004F0006FE0016A21F010010162066A41688769B4
:10050000D2F800C027F4E64747EA0C27D2F810C01B
:1005100026F0200646EA0C16D2F804C026F0100693
:1005200046EA0C16A04201D0A84213D1556926F024
:10053000800444EA8514956824F0400444EA851652
:10054000946921F4806141EA8401D46921F4006155
:1005500041EAC40141608761D168816361E003E0E1
:1005600000E01E463046F0BD016A21F48071016250
:10057000016A4668C769D2F800C027F0730747EAE6
:100580000C07D2F810C021F4007141EA0C21D2F816
:1005900004C021F4807141EA0C21A04201D0A8429C
:1005A00013D1546921F4006141EA8421946821F453
:1005B000806141EA8421956926F4805444EA051457
:1005C000D56924F4005444EA45164660C761D268F0
:1005D000C2630162C5E7016A21F480510162066AC3
:1005E0004168C769D2F800C027F4E64747EA0C27FC
:1005F000D2F810C026F4005646EA0C36D2F804C0F1
:1006000026F4805646EA0C36A04201D0A84204D116
:10061000946921F4804141EA84114160C761D16845
:10062000016406629DE700000000014000040140F3
:1006300008B54FF0E0210A690092421C00D0401C2E
:100640000A69D20300D5401E0028F9D108BD000078
:1006500000B587B018216846FFF7B9FD2020FFF7E5
:10066000D7FD8020FFF7D4FD08484FF480618161F9
:10067000009101210222CDE901120022CDE90321DE
:100680006946FFF7D1FD07B000BD0000001402402D
:100690002DE9F04395B014210FA8FFF798FD202114
:1006A00001A8FFF794FD182109A8FFF790FD36482F
:1006B000016841F480710160006800F4807000906E
:1006C00032480068C0F30220011D072901D2002032
:1006D00000E0C01E002404FA00F108012C494FF08C
:1006E000010981F800042A494FF4005029394FF0DC
:1006F0000408C1F800015320ADF83C0040F2F310AB
:10070000CDE91040234E0FA930461294FFF748FE62
:10071000306820F0800030601F4801781D48183094
:100720000D1828681C4F0821FF1D3A789140084396
:1007300028606020CDE901040394049401AA0121FA
:1007400030460594FFF790FE29683A7808FA02F0DF
:10075000814329600C481038016841F02001016094
:1007600000680BA900F0200000907015099002208D
:100770000A9081E8110209200E9009A90748FFF7A5
:1007800053FD15B0BDE8F083403802400CED00E0A9
:100790002DE000E000200040600900080014024045
:1007A000FEE7704770477047704700002F4810B54C
:1007B000016821F00F0141F00501016000682C483B
:1007C000016841F4804101602A48016821F0F80184
:1007D00041F080010160016841F0010101600168A0
:1007E000C1F340010029FAD0224942F60822091D2E
:1007F0000B68214C23401A430A600A6822F44032F5
:100800000A60016841F0807101600168C1F34061D4
:100810000029FAD017480830016821F0F001016082
:10082000016821F4E05141F4A0510160016821F414
:10083000604141F400410160016821F0030141F091
:1008400002010160016801F00C010829FAD10B4C8A
:100850002046FFF791FD4FF0E021086940F00400C9
:1008600008612046BDE81040FFF794BD003C0240FF
:1008700000700040003802400080BFFF007A030A89
:100880000548016841F47001016003494FF00060C0
:10089000803908607047000088ED00E07047FEE78F
:1008A00002E008C8121F08C1002AFAD17047704739
:1008B000002001E001C1121F002AFBD17047000097
:1008C000224808B5016841F480410160006800F4E5
:1008D000804000901D48001F016841F08051016078
:1008E00000681B4900F08050009008684FF6FF0236
:1008F0001040184A40F4407010430860FFF756FF5C
:10090000FFF7A6FEFFF7C4FE134D286A40F0010072
:100910002862286840F001002860104C4FF4FA77F4
:1009200000264FF001080A20FFF782FE20780028F9
:10093000606801D0401C00E0401E6060B84200D9F1
:10094000267008B984F800806863ECE744380240F8
:100950000CED00E00000FA0500200040000000203F
:10096000000000000404040000080000000800006B
:1009700090090008000000200C000000A0080008FA
:100980009C0900080C00002004040000B0080008C6
:0C09900001000000000000000024F40042
:040000050800018965
:00000001FF
