:020000040800F2
:10000000080400209D010008030400080D020008F8
:100010000104000809020008FD04000800000000B7
:1000200000000000000000000000000007040008BD
:100030000B02000800000000050400080904000885
:10004000B7010008B7010008B7010008B7010008B0
:10005000B7010008B7010008B7010008B7010008A0
:10006000B7010008B7010008B7010008B701000890
:10007000B7010008B7010008B7010008B701000880
:10008000B7010008B7010008B7010008B701000870
:10009000B7010008B7010008B7010008B701000860
:1000A000B7010008B7010008B7010008B701000850
:1000B000B7010008B7010008B7010008B701000840
:1000C000B7010008B7010008B7010008B701000830
:1000D000B7010008B7010008B7010008B701000820
:1000E000B7010008B7010008B7010008B701000810
:1000F000B7010008B7010008B7010008B701000800
:10010000B7010008B7010008B7010008B7010008EF
:10011000B7010008B7010008B7010008B7010008DF
:10012000B7010008B7010008B7010008B7010008CF
:10013000B7010008B7010008B7010008B7010008BF
:10014000B7010008B7010008B7010008B7010008AF
:10015000B7010008B7010008B7010008B70100089F
:10016000B7010008B7010008B7010008B70100088F
:10017000B7010008B7010008B7010008000000003F
:10018000B7010008B7010008DFF80CD000F02AF82A
:10019000004800471D050008080400200648804765
:1001A00006480047FEE7FEE7FEE7FEE7FEE7FEE75C
:1001B000FEE7FEE7FEE7FEE7E1040008890100082C
:1001C000D2B201E000F8012B491EFBD27047002299
:1001D000F6E710B513460A4604461946FFF7F0FF46
:1001E000204610BD064C074D06E0E06840F00103D4
:1001F00094E8070098471034AC42F6D3FFF7C8FFE5
:1002000094050008B4050008FEE77047FEE700000B
:10021000044908B50A6802430A6009680140009170
:1002200008BD0000303802402DE9F0430A6801257E
:1002300092FAA2F2B2FA82F34FF00F08032493E08D
:1002400005FA03F632407DD04E68012E01D0022E11
:1002500028D18E68876892FAA2FCBCFA8CFC4FEA1F
:100260004C0C04FA0CFC27EA0C0792FAA2FCBCFA2C
:100270008CFC4FEA4C0C06FA0CF637438760D1F839
:100280000C90466892FAA2F7B7FA87F705FA07FCCE
:1002900026EA0C0692FAA2FCBCFA8CFC09FA0CF7CE
:1002A0003E434660D1F810C0C66892FAA2F7B7FA8A
:1002B00087F77F0004FA07F7BE4392FAA2F7B7FA6E
:1002C00087F77F000CFA07FC46EA0C06C6604E680A
:1002D000022E32D192FAA2F6B6FA86F6082E4E69AE
:1002E00015D2076A92FAA2FCBCFA8CFC4FEA8C0C7D
:1002F00008FA0CFC27EA0C0792FAA2FCBCFA8CFC68
:100300004FEA8C0C06FA0CF63743076215E0476A91
:10031000B1464FEA122C9CFAACF6B6FA86F6B60055
:1003200008FA06F6B7439CFAACF6B6FA86F64FEA38
:10033000860C09FA0CF6374347624E68076892FA52
:10034000A2FC00E00FE0BCFA8CFC4FEA4C0C04FA73
:100350000CF992FAA2F2B2FA82F2520027EA0907E5
:100360009640374307605B1C0A6832FA03F67FF455
:1003700067AF0020BDE8F0834FF47A71B0FBF1F174
:100380004FF0E020491E416100218161052101619A
:10039000704700000149086070470000000000201D
:1003A00008B54FF0E0210A690092421C00D0401CC1
:1003B0000A69D20300D5401E0028F9D108BD00000B
:1003C00000B587B018216846FFF701FF2020FFF72E
:1003D0001FFF8020FFF71CFF08484FF4C0610A048C
:1003E0008261009101210191002102910391049108
:1003F0006946FFF719FF07B000BD00000014024076
:10040000FEE7704770477047704700002F4810B5EF
:10041000016821F00F0141F00501016000682C48DE
:10042000016841F4804101602A48016821F0F80127
:1004300041F080010160016841F001010160016843
:10044000C1F340010029FAD0224942F60822091DD1
:100450000B68214C23401A430A600A6822F4403298
:100460000A60016841F0807101600168C1F3406178
:100470000029FAD017480830016821F0F001016026
:10048000016821F4E05141F4A0510160016821F4B8
:10049000604141F400410160016821F0030141F035
:1004A00002010160016801F00C010829FAD10B4C2E
:1004B0002046FFF761FF4FF0E021086940F004009B
:1004C00008612046BDE81040FFF764BF003C0240D1
:1004D00000700040003802400080BFFF007A030A2D
:1004E0000548016841F47001016003494FF0006064
:1004F000803908607047000088ED00E0FEE702E008
:1005000008C8121F08C1002AFAD17047704700209E
:1005100001E001C1121F002AFBD17047194808B53C
:10052000016841F480410160006800F4804000905F
:100530001448001F016841F08051016000681249B1
:1005400000F08050009008684FF6FF0210400F4AFC
:1005500040F4407010430860FFF758FFFFF730FF8A
:100560000B4C4FF4FA7526153704606980F400705F
:100570006061A6612846FFF713FFA7612846FFF7D1
:100580000FFFF2E7443802400CED00E00000FA05EE
:1005900000140240B4050008000000200400000020
:1005A000FE040008B8050008040000200404000050
:0805B0000E0500080024F40010
:040000050800018965
:00000001FF
