:020000040800F2
:10000000080400209D0100086B0500080D0200088F
:1000100069050008090200088D06000800000000BC
:100020000000000000000000000000006F05000854
:100030000B020008000000006D05000871050008B3
:10004000B7010008B7010008B7010008B7010008B0
:10005000B7010008B7010008B7010008B7010008A0
:10006000B7010008B7010008B7010008B701000890
:10007000B7010008B7010008B7010008B701000880
:10008000B7010008B7010008B7010008B701000870
:10009000B7010008B7010008B7010008B701000860
:1000A000B7010008B7010008B7010008B701000850
:1000B000B701000865060008B7010008B70100088D
:1000C000B7010008B7010008B7010008B701000830
:1000D000B7010008B7010008B7010008B701000820
:1000E000B7010008B7010008B7010008B701000810
:1000F000B7010008B7010008B7010008B701000800
:10010000B7010008B7010008B7010008B7010008EF
:10011000B7010008B7010008B7010008B7010008DF
:10012000B7010008B7010008B7010008B7010008CF
:10013000B7010008B7010008B7010008B7010008BF
:10014000B7010008B7010008B7010008B7010008AF
:10015000B7010008B7010008B7010008B70100089F
:10016000B7010008B7010008B7010008B70100088F
:10017000B7010008B7010008B7010008000000003F
:10018000B7010008B7010008DFF80CD000F02AF82A
:1001900000480047AD0600080804002006488047D4
:1001A00006480047FEE7FEE7FEE7FEE7FEE7FEE75C
:1001B000FEE7FEE7FEE7FEE74906000889010008C2
:1001C000D2B201E000F8012B491EFBD27047002299
:1001D000F6E710B513460A4604461946FFF7F0FF46
:1001E000204610BD064C074D06E0E06840F00103D4
:1001F00094E8070098471034AC42F6D3FFF7C8FFE5
:100200003007000850070008FEE77047FEE70000CF
:10021000044908B50A6802430A6009680140009170
:1002200008BD0000303802402DE9F0430A6801257E
:1002300092FAA2F2B2FA82F34FF00F08032493E08D
:1002400005FA03F632407DD04E68012E01D0022E11
:1002500028D18E68876892FAA2FCBCFA8CFC4FEA1F
:100260004C0C04FA0CFC27EA0C0792FAA2FCBCFA2C
:100270008CFC4FEA4C0C06FA0CF637438760D1F839
:100280000C90466892FAA2F7B7FA87F705FA07FCCE
:1002900026EA0C0692FAA2FCBCFA8CFC09FA0CF7CE
:1002A0003E434660D1F810C0C66892FAA2F7B7FA8A
:1002B00087F77F0004FA07F7BE4392FAA2F7B7FA6E
:1002C00087F77F000CFA07FC46EA0C06C6604E680A
:1002D000022E32D192FAA2F6B6FA86F6082E4E69AE
:1002E00015D2076A92FAA2FCBCFA8CFC4FEA8C0C7D
:1002F00008FA0CFC27EA0C0792FAA2FCBCFA8CFC68
:100300004FEA8C0C06FA0CF63743076215E0476A91
:10031000B1464FEA122C9CFAACF6B6FA86F6B60055
:1003200008FA06F6B7439CFAACF6B6FA86F64FEA38
:10033000860C09FA0CF6374347624E68076892FA52
:10034000A2FC00E00FE0BCFA8CFC4FEA4C0C04FA73
:100350000CF992FAA2F2B2FA82F2520027EA0907E5
:100360009640374307605B1C0A6832FA03F67FF455
:1003700067AF0020BDE8F0834FF47A71B0FBF1F174
:100380004FF0E020491E416100218161052101619A
:100390007047000001490860704700000400002019
:1003A000F0B50268254B264D264E274F274C4FF0BF
:1003B000804C984209D0604507D0A84205D0B04291
:1003C00003D0B84201D0A04205D1D1F804E022F018
:1003D000700242EA0E0298421BD0604519D0A84232
:1003E00017D0B04215D0B84213D0A04211D0184D4A
:1003F000A8420ED0174DA8420BD0174DA84208D0E6
:10040000164DA84205D0164DA84202D0154DA8425F
:1004100003D1CD6822F440722A4302608A68C26226
:100420000A888262984201D0A04201D1097C01630E
:10043000416941F0010141610020F0BD000001402F
:100440000004004000080040000C0040000401408F
:1004500000400140004401400048014000180040B5
:10046000001C00400020004008B54FF0E0210A6960
:100470000092421C00D0401C0A69D20300D5401EE5
:100480000028F9D108BD000000B587B018216846E2
:10049000FFF79DFE2020FFF7BBFE8020FFF7B8FE90
:1004A00008484FF4C0610A04826100910121019162
:1004B00000210291039104916946FFF7B5FE07B050
:1004C00000BD00000014024010B586B0142168463B
:1004D000FFF77DFE2048016841F0020101600068DD
:1004E00000F0020005901D480068C0F30220011DC5
:1004F000072901D2002000E0C01E002202FA00F10C
:100500000801174981F800044FF0E0214FF0005036
:10051000C1F8000142F2CF00ADF8000042F20F70C6
:10052000CDE901200F4C694620460392FFF738FFC2
:10053000206820F080002060A06844F20701884312
:10054000A060606820F070006060A06820F080000B
:10055000A06006B010BD0000403802400CED00E085
:100560001DE000E000040040FEE770477047704760
:10057000704700002F4810B5016821F00F0141F0CD
:100580000501016000682C48016841F48041016068
:100590002A48016821F0F80141F0800101600168FA
:1005A00041F0010101600168C1F340010029FAD066
:1005B000224942F60822091D0B68214C23401A43A8
:1005C0000A600A6822F440320A60016841F08071D2
:1005D00001600168C1F340610029FAD01748083072
:1005E000016821F0F0010160016821F4E05141F45B
:1005F000A0510160016821F4604141F400410160B3
:10060000016821F0030141F002010160016801F07D
:100610000C010829FAD10B4C2046FFF7ADFE4FF034
:10062000E021086940F0040008612046BDE8104060
:10063000FFF7B0BE003C02400070004000380240AE
:100640000080BFFF007A030A0548016841F4700189
:10065000016003494FF00060803908607047000076
:1006600088ED00E00648416981F400714161054967
:100670006FF00100086104480168491C016070477F
:10068000001402400004004000000020FEE702E0E9
:1006900008C8121F08C1002AFAD17047704700200D
:1006A00001E001C1121F002AFBD170471B4808B5A9
:1006B000016841F480410160006800F480400090CE
:1006C0001648001F016841F080510160006814491C
:1006D00000F08050009008684FF6FF021040114A69
:1006E00040F4407010430860FFF744FFFFF7CCFE72
:1006F000FFF7EAFE0C48016841F001010160C168A2
:1007000041F00101C160094C4FF47A752846FFF7AA
:10071000ABFE606980F480606061F7E744380240B6
:100720000CED00E00000FA05000400400014024057
:100730005007000800000020080000008E06000896
:100740005807000808000020000400009E0600086A
:08075000000000000024F40089
:040000050800018965
:00000001FF
